{
	"data": {
		"bytecode": {
			"linkReferences": {},
			"object": "6080604052348015600e575f5ffd5b506109648061001c5f395ff3fe608060405234801561000f575f5ffd5b5060043610610055575f3560e01c8063492deb15146100595780635a1af0cd1461008957806365c4e22a146100a7578063b9db15b4146100d7578063dfe00c5114610107575b5f5ffd5b610073600480360381019061006e9190610330565b610123565b60405161008091906103cb565b60405180910390f35b61009161012a565b60405161009e91906103fa565b60405180910390f35b6100c160048036038101906100bc9190610330565b61012f565b6040516100ce91906103cb565b60405180910390f35b6100f160048036038101906100ec9190610330565b6101ca565b6040516100fe91906103cb565b60405180910390f35b610121600480360381019061011c919061053f565b6102b3565b005b6060919050565b5f5481565b6001602052805f5260405f205f91509050805461014b906105b3565b80601f0160208091040260200160405190810160405280929190818152602001828054610177906105b3565b80156101c25780601f10610199576101008083540402835291602001916101c2565b820191905f5260205f20905b8154815290600101906020018083116101a557829003601f168201915b505050505081565b60605f60015f8481526020019081526020015f2080546101e9906105b3565b80601f0160208091040260200160405190810160405280929190818152602001828054610215906105b3565b80156102605780601f1061023757610100808354040283529160200191610260565b820191905f5260205f20905b81548152906001019060200180831161024357829003601f168201915b505050505090505f8151116102aa576040517f08c379a00000000000000000000000000000000000000000000000000000000081526004016102a19061062d565b60405180910390fd5b80915050919050565b8060015f5f5481526020019081526020015f2090816102d291906107eb565b505f5f8154809291906102e4906108e7565b919050555050565b5f604051905090565b5f5ffd5b5f5ffd5b5f819050919050565b61030f816102fd565b8114610319575f5ffd5b50565b5f8135905061032a81610306565b92915050565b5f60208284031215610345576103446102f5565b5b5f6103528482850161031c565b91505092915050565b5f81519050919050565b5f82825260208201905092915050565b8281835e5f83830152505050565b5f601f19601f8301169050919050565b5f61039d8261035b565b6103a78185610365565b93506103b7818560208601610375565b6103c081610383565b840191505092915050565b5f6020820190508181035f8301526103e38184610393565b905092915050565b6103f4816102fd565b82525050565b5f60208201905061040d5f8301846103eb565b92915050565b5f5ffd5b5f5ffd5b7f4e487b71000000000000000000000000000000000000000000000000000000005f52604160045260245ffd5b61045182610383565b810181811067ffffffffffffffff821117156104705761046f61041b565b5b80604052505050565b5f6104826102ec565b905061048e8282610448565b919050565b5f67ffffffffffffffff8211156104ad576104ac61041b565b5b6104b682610383565b9050602081019050919050565b828183375f83830152505050565b5f6104e36104de84610493565b610479565b9050828152602081018484840111156104ff576104fe610417565b5b61050a8482856104c3565b509392505050565b5f82601f83011261052657610525610413565b5b81356105368482602086016104d1565b91505092915050565b5f60208284031215610554576105536102f5565b5b5f82013567ffffffffffffffff811115610571576105706102f9565b5b61057d84828501610512565b91505092915050565b7f4e487b71000000000000000000000000000000000000000000000000000000005f52602260045260245ffd5b5f60028204905060018216806105ca57607f821691505b6020821081036105dd576105dc610586565b5b50919050565b7f50726f64756374206e6f7420666f756e640000000000000000000000000000005f82015250565b5f610617601183610365565b9150610622826105e3565b602082019050919050565b5f6020820190508181035f8301526106448161060b565b9050919050565b5f819050815f5260205f209050919050565b5f6020601f8301049050919050565b5f82821b905092915050565b5f600883026106a77fffffffffffffffffffffffffffffffffffffffffffffffffffffffffffffffff8261066c565b6106b1868361066c565b95508019841693508086168417925050509392505050565b5f819050919050565b5f6106ec6106e76106e2846102fd565b6106c9565b6102fd565b9050919050565b5f819050919050565b610705836106d2565b610719610711826106f3565b848454610678565b825550505050565b5f5f905090565b610730610721565b61073b8184846106fc565b505050565b5b8181101561075e576107535f82610728565b600181019050610741565b5050565b601f8211156107a3576107748161064b565b61077d8461065d565b8101602085101561078c578190505b6107a06107988561065d565b830182610740565b50505b505050565b5f82821c905092915050565b5f6107c35f19846008026107a8565b1980831691505092915050565b5f6107db83836107b4565b9150826002028217905092915050565b6107f48261035b565b67ffffffffffffffff81111561080d5761080c61041b565b5b61081782546105b3565b610822828285610762565b5f60209050601f831160018114610853575f8415610841578287015190505b61084b85826107d0565b8655506108b2565b601f1984166108618661064b565b5f5b8281101561088857848901518255600182019150602085019450602081019050610863565b868310156108a557848901516108a1601f8916826107b4565b8355505b6001600288020188555050505b505050505050565b7f4e487b71000000000000000000000000000000000000000000000000000000005f52601160045260245ffd5b5f6108f1826102fd565b91507fffffffffffffffffffffffffffffffffffffffffffffffffffffffffffffffff8203610923576109226108ba565b5b60018201905091905056fea2646970667358221220d9de1c3f730f38532de319fd0f474703765fc98763231cadc628919e8eec517464736f6c634300081e0033",
			"opcodes": "PUSH1 0x80 PUSH1 0x40 MSTORE CALLVALUE DUP1 ISZERO PUSH1 0xE JUMPI PUSH0 PUSH0 REVERT JUMPDEST POP PUSH2 0x964 DUP1 PUSH2 0x1C PUSH0 CODECOPY PUSH0 RETURN INVALID PUSH1 0x80 PUSH1 0x40 MSTORE CALLVALUE DUP1 ISZERO PUSH2 0xF JUMPI PUSH0 PUSH0 REVERT JUMPDEST POP PUSH1 0x4 CALLDATASIZE LT PUSH2 0x55 JUMPI PUSH0 CALLDATALOAD PUSH1 0xE0 SHR DUP1 PUSH4 0x492DEB15 EQ PUSH2 0x59 JUMPI DUP1 PUSH4 0x5A1AF0CD EQ PUSH2 0x89 JUMPI DUP1 PUSH4 0x65C4E22A EQ PUSH2 0xA7 JUMPI DUP1 PUSH4 0xB9DB15B4 EQ PUSH2 0xD7 JUMPI DUP1 PUSH4 0xDFE00C51 EQ PUSH2 0x107 JUMPI JUMPDEST PUSH0 PUSH0 REVERT JUMPDEST PUSH2 0x73 PUSH1 0x4 DUP1 CALLDATASIZE SUB DUP2 ADD SWAP1 PUSH2 0x6E SWAP2 SWAP1 PUSH2 0x330 JUMP JUMPDEST PUSH2 0x123 JUMP JUMPDEST PUSH1 0x40 MLOAD PUSH2 0x80 SWAP2 SWAP1 PUSH2 0x3CB JUMP JUMPDEST PUSH1 0x40 MLOAD DUP1 SWAP2 SUB SWAP1 RETURN JUMPDEST PUSH2 0x91 PUSH2 0x12A JUMP JUMPDEST PUSH1 0x40 MLOAD PUSH2 0x9E SWAP2 SWAP1 PUSH2 0x3FA JUMP JUMPDEST PUSH1 0x40 MLOAD DUP1 SWAP2 SUB SWAP1 RETURN JUMPDEST PUSH2 0xC1 PUSH1 0x4 DUP1 CALLDATASIZE SUB DUP2 ADD SWAP1 PUSH2 0xBC SWAP2 SWAP1 PUSH2 0x330 JUMP JUMPDEST PUSH2 0x12F JUMP JUMPDEST PUSH1 0x40 MLOAD PUSH2 0xCE SWAP2 SWAP1 PUSH2 0x3CB JUMP JUMPDEST PUSH1 0x40 MLOAD DUP1 SWAP2 SUB SWAP1 RETURN JUMPDEST PUSH2 0xF1 PUSH1 0x4 DUP1 CALLDATASIZE SUB DUP2 ADD SWAP1 PUSH2 0xEC SWAP2 SWAP1 PUSH2 0x330 JUMP JUMPDEST PUSH2 0x1CA JUMP JUMPDEST PUSH1 0x40 MLOAD PUSH2 0xFE SWAP2 SWAP1 PUSH2 0x3CB JUMP JUMPDEST PUSH1 0x40 MLOAD DUP1 SWAP2 SUB SWAP1 RETURN JUMPDEST PUSH2 0x121 PUSH1 0x4 DUP1 CALLDATASIZE SUB DUP2 ADD SWAP1 PUSH2 0x11C SWAP2 SWAP1 PUSH2 0x53F JUMP JUMPDEST PUSH2 0x2B3 JUMP JUMPDEST STOP JUMPDEST PUSH1 0x60 SWAP2 SWAP1 POP JUMP JUMPDEST PUSH0 SLOAD DUP2 JUMP JUMPDEST PUSH1 0x1 PUSH1 0x20 MSTORE DUP1 PUSH0 MSTORE PUSH1 0x40 PUSH0 KECCAK256 PUSH0 SWAP2 POP SWAP1 POP DUP1 SLOAD PUSH2 0x14B SWAP1 PUSH2 0x5B3 JUMP JUMPDEST DUP1 PUSH1 0x1F ADD PUSH1 0x20 DUP1 SWAP2 DIV MUL PUSH1 0x20 ADD PUSH1 0x40 MLOAD SWAP1 DUP2 ADD PUSH1 0x40 MSTORE DUP1 SWAP3 SWAP2 SWAP1 DUP2 DUP2 MSTORE PUSH1 0x20 ADD DUP3 DUP1 SLOAD PUSH2 0x177 SWAP1 PUSH2 0x5B3 JUMP JUMPDEST DUP1 ISZERO PUSH2 0x1C2 JUMPI DUP1 PUSH1 0x1F LT PUSH2 0x199 JUMPI PUSH2 0x100 DUP1 DUP4 SLOAD DIV MUL DUP4 MSTORE SWAP2 PUSH1 0x20 ADD SWAP2 PUSH2 0x1C2 JUMP JUMPDEST DUP3 ADD SWAP2 SWAP1 PUSH0 MSTORE PUSH1 0x20 PUSH0 KECCAK256 SWAP1 JUMPDEST DUP2 SLOAD DUP2 MSTORE SWAP1 PUSH1 0x1 ADD SWAP1 PUSH1 0x20 ADD DUP1 DUP4 GT PUSH2 0x1A5 JUMPI DUP3 SWAP1 SUB PUSH1 0x1F AND DUP3 ADD SWAP2 JUMPDEST POP POP POP POP POP DUP2 JUMP JUMPDEST PUSH1 0x60 PUSH0 PUSH1 0x1 PUSH0 DUP5 DUP2 MSTORE PUSH1 0x20 ADD SWAP1 DUP2 MSTORE PUSH1 0x20 ADD PUSH0 KECCAK256 DUP1 SLOAD PUSH2 0x1E9 SWAP1 PUSH2 0x5B3 JUMP JUMPDEST DUP1 PUSH1 0x1F ADD PUSH1 0x20 DUP1 SWAP2 DIV MUL PUSH1 0x20 ADD PUSH1 0x40 MLOAD SWAP1 DUP2 ADD PUSH1 0x40 MSTORE DUP1 SWAP3 SWAP2 SWAP1 DUP2 DUP2 MSTORE PUSH1 0x20 ADD DUP3 DUP1 SLOAD PUSH2 0x215 SWAP1 PUSH2 0x5B3 JUMP JUMPDEST DUP1 ISZERO PUSH2 0x260 JUMPI DUP1 PUSH1 0x1F LT PUSH2 0x237 JUMPI PUSH2 0x100 DUP1 DUP4 SLOAD DIV MUL DUP4 MSTORE SWAP2 PUSH1 0x20 ADD SWAP2 PUSH2 0x260 JUMP JUMPDEST DUP3 ADD SWAP2 SWAP1 PUSH0 MSTORE PUSH1 0x20 PUSH0 KECCAK256 SWAP1 JUMPDEST DUP2 SLOAD DUP2 MSTORE SWAP1 PUSH1 0x1 ADD SWAP1 PUSH1 0x20 ADD DUP1 DUP4 GT PUSH2 0x243 JUMPI DUP3 SWAP1 SUB PUSH1 0x1F AND DUP3 ADD SWAP2 JUMPDEST POP POP POP POP POP SWAP1 POP PUSH0 DUP2 MLOAD GT PUSH2 0x2AA JUMPI PUSH1 0x40 MLOAD PUSH32 0x8C379A000000000000000000000000000000000000000000000000000000000 DUP2 MSTORE PUSH1 0x4 ADD PUSH2 0x2A1 SWAP1 PUSH2 0x62D JUMP JUMPDEST PUSH1 0x40 MLOAD DUP1 SWAP2 SUB SWAP1 REVERT JUMPDEST DUP1 SWAP2 POP POP SWAP2 SWAP1 POP JUMP JUMPDEST DUP1 PUSH1 0x1 PUSH0 PUSH0 SLOAD DUP2 MSTORE PUSH1 0x20 ADD SWAP1 DUP2 MSTORE PUSH1 0x20 ADD PUSH0 KECCAK256 SWAP1 DUP2 PUSH2 0x2D2 SWAP2 SWAP1 PUSH2 0x7EB JUMP JUMPDEST POP PUSH0 PUSH0 DUP2 SLOAD DUP1 SWAP3 SWAP2 SWAP1 PUSH2 0x2E4 SWAP1 PUSH2 0x8E7 JUMP JUMPDEST SWAP2 SWAP1 POP SSTORE POP POP JUMP JUMPDEST PUSH0 PUSH1 0x40 MLOAD SWAP1 POP SWAP1 JUMP JUMPDEST PUSH0 PUSH0 REVERT JUMPDEST PUSH0 PUSH0 REVERT JUMPDEST PUSH0 DUP2 SWAP1 POP SWAP2 SWAP1 POP JUMP JUMPDEST PUSH2 0x30F DUP2 PUSH2 0x2FD JUMP JUMPDEST DUP2 EQ PUSH2 0x319 JUMPI PUSH0 PUSH0 REVERT JUMPDEST POP JUMP JUMPDEST PUSH0 DUP2 CALLDATALOAD SWAP1 POP PUSH2 0x32A DUP2 PUSH2 0x306 JUMP JUMPDEST SWAP3 SWAP2 POP POP JUMP JUMPDEST PUSH0 PUSH1 0x20 DUP3 DUP5 SUB SLT ISZERO PUSH2 0x345 JUMPI PUSH2 0x344 PUSH2 0x2F5 JUMP JUMPDEST JUMPDEST PUSH0 PUSH2 0x352 DUP5 DUP3 DUP6 ADD PUSH2 0x31C JUMP JUMPDEST SWAP2 POP POP SWAP3 SWAP2 POP POP JUMP JUMPDEST PUSH0 DUP2 MLOAD SWAP1 POP SWAP2 SWAP1 POP JUMP JUMPDEST PUSH0 DUP3 DUP3 MSTORE PUSH1 0x20 DUP3 ADD SWAP1 POP SWAP3 SWAP2 POP POP JUMP JUMPDEST DUP3 DUP2 DUP4 MCOPY PUSH0 DUP4 DUP4 ADD MSTORE POP POP POP JUMP JUMPDEST PUSH0 PUSH1 0x1F NOT PUSH1 0x1F DUP4 ADD AND SWAP1 POP SWAP2 SWAP1 POP JUMP JUMPDEST PUSH0 PUSH2 0x39D DUP3 PUSH2 0x35B JUMP JUMPDEST PUSH2 0x3A7 DUP2 DUP6 PUSH2 0x365 JUMP JUMPDEST SWAP4 POP PUSH2 0x3B7 DUP2 DUP6 PUSH1 0x20 DUP7 ADD PUSH2 0x375 JUMP JUMPDEST PUSH2 0x3C0 DUP2 PUSH2 0x383 JUMP JUMPDEST DUP5 ADD SWAP2 POP POP SWAP3 SWAP2 POP POP JUMP JUMPDEST PUSH0 PUSH1 0x20 DUP3 ADD SWAP1 POP DUP2 DUP2 SUB PUSH0 DUP4 ADD MSTORE PUSH2 0x3E3 DUP2 DUP5 PUSH2 0x393 JUMP JUMPDEST SWAP1 POP SWAP3 SWAP2 POP POP JUMP JUMPDEST PUSH2 0x3F4 DUP2 PUSH2 0x2FD JUMP JUMPDEST DUP3 MSTORE POP POP JUMP JUMPDEST PUSH0 PUSH1 0x20 DUP3 ADD SWAP1 POP PUSH2 0x40D PUSH0 DUP4 ADD DUP5 PUSH2 0x3EB JUMP JUMPDEST SWAP3 SWAP2 POP POP JUMP JUMPDEST PUSH0 PUSH0 REVERT JUMPDEST PUSH0 PUSH0 REVERT JUMPDEST PUSH32 0x4E487B7100000000000000000000000000000000000000000000000000000000 PUSH0 MSTORE PUSH1 0x41 PUSH1 0x4 MSTORE PUSH1 0x24 PUSH0 REVERT JUMPDEST PUSH2 0x451 DUP3 PUSH2 0x383 JUMP JUMPDEST DUP2 ADD DUP2 DUP2 LT PUSH8 0xFFFFFFFFFFFFFFFF DUP3 GT OR ISZERO PUSH2 0x470 JUMPI PUSH2 0x46F PUSH2 0x41B JUMP JUMPDEST JUMPDEST DUP1 PUSH1 0x40 MSTORE POP POP POP JUMP JUMPDEST PUSH0 PUSH2 0x482 PUSH2 0x2EC JUMP JUMPDEST SWAP1 POP PUSH2 0x48E DUP3 DUP3 PUSH2 0x448 JUMP JUMPDEST SWAP2 SWAP1 POP JUMP JUMPDEST PUSH0 PUSH8 0xFFFFFFFFFFFFFFFF DUP3 GT ISZERO PUSH2 0x4AD JUMPI PUSH2 0x4AC PUSH2 0x41B JUMP JUMPDEST JUMPDEST PUSH2 0x4B6 DUP3 PUSH2 0x383 JUMP JUMPDEST SWAP1 POP PUSH1 0x20 DUP2 ADD SWAP1 POP SWAP2 SWAP1 POP JUMP JUMPDEST DUP3 DUP2 DUP4 CALLDATACOPY PUSH0 DUP4 DUP4 ADD MSTORE POP POP POP JUMP JUMPDEST PUSH0 PUSH2 0x4E3 PUSH2 0x4DE DUP5 PUSH2 0x493 JUMP JUMPDEST PUSH2 0x479 JUMP JUMPDEST SWAP1 POP DUP3 DUP2 MSTORE PUSH1 0x20 DUP2 ADD DUP5 DUP5 DUP5 ADD GT ISZERO PUSH2 0x4FF JUMPI PUSH2 0x4FE PUSH2 0x417 JUMP JUMPDEST JUMPDEST PUSH2 0x50A DUP5 DUP3 DUP6 PUSH2 0x4C3 JUMP JUMPDEST POP SWAP4 SWAP3 POP POP POP JUMP JUMPDEST PUSH0 DUP3 PUSH1 0x1F DUP4 ADD SLT PUSH2 0x526 JUMPI PUSH2 0x525 PUSH2 0x413 JUMP JUMPDEST JUMPDEST DUP2 CALLDATALOAD PUSH2 0x536 DUP5 DUP3 PUSH1 0x20 DUP7 ADD PUSH2 0x4D1 JUMP JUMPDEST SWAP2 POP POP SWAP3 SWAP2 POP POP JUMP JUMPDEST PUSH0 PUSH1 0x20 DUP3 DUP5 SUB SLT ISZERO PUSH2 0x554 JUMPI PUSH2 0x553 PUSH2 0x2F5 JUMP JUMPDEST JUMPDEST PUSH0 DUP3 ADD CALLDATALOAD PUSH8 0xFFFFFFFFFFFFFFFF DUP2 GT ISZERO PUSH2 0x571 JUMPI PUSH2 0x570 PUSH2 0x2F9 JUMP JUMPDEST JUMPDEST PUSH2 0x57D DUP5 DUP3 DUP6 ADD PUSH2 0x512 JUMP JUMPDEST SWAP2 POP POP SWAP3 SWAP2 POP POP JUMP JUMPDEST PUSH32 0x4E487B7100000000000000000000000000000000000000000000000000000000 PUSH0 MSTORE PUSH1 0x22 PUSH1 0x4 MSTORE PUSH1 0x24 PUSH0 REVERT JUMPDEST PUSH0 PUSH1 0x2 DUP3 DIV SWAP1 POP PUSH1 0x1 DUP3 AND DUP1 PUSH2 0x5CA JUMPI PUSH1 0x7F DUP3 AND SWAP2 POP JUMPDEST PUSH1 0x20 DUP3 LT DUP2 SUB PUSH2 0x5DD JUMPI PUSH2 0x5DC PUSH2 0x586 JUMP JUMPDEST JUMPDEST POP SWAP2 SWAP1 POP JUMP JUMPDEST PUSH32 0x50726F64756374206E6F7420666F756E64000000000000000000000000000000 PUSH0 DUP3 ADD MSTORE POP JUMP JUMPDEST PUSH0 PUSH2 0x617 PUSH1 0x11 DUP4 PUSH2 0x365 JUMP JUMPDEST SWAP2 POP PUSH2 0x622 DUP3 PUSH2 0x5E3 JUMP JUMPDEST PUSH1 0x20 DUP3 ADD SWAP1 POP SWAP2 SWAP1 POP JUMP JUMPDEST PUSH0 PUSH1 0x20 DUP3 ADD SWAP1 POP DUP2 DUP2 SUB PUSH0 DUP4 ADD MSTORE PUSH2 0x644 DUP2 PUSH2 0x60B JUMP JUMPDEST SWAP1 POP SWAP2 SWAP1 POP JUMP JUMPDEST PUSH0 DUP2 SWAP1 POP DUP2 PUSH0 MSTORE PUSH1 0x20 PUSH0 KECCAK256 SWAP1 POP SWAP2 SWAP1 POP JUMP JUMPDEST PUSH0 PUSH1 0x20 PUSH1 0x1F DUP4 ADD DIV SWAP1 POP SWAP2 SWAP1 POP JUMP JUMPDEST PUSH0 DUP3 DUP3 SHL SWAP1 POP SWAP3 SWAP2 POP POP JUMP JUMPDEST PUSH0 PUSH1 0x8 DUP4 MUL PUSH2 0x6A7 PUSH32 0xFFFFFFFFFFFFFFFFFFFFFFFFFFFFFFFFFFFFFFFFFFFFFFFFFFFFFFFFFFFFFFFF DUP3 PUSH2 0x66C JUMP JUMPDEST PUSH2 0x6B1 DUP7 DUP4 PUSH2 0x66C JUMP JUMPDEST SWAP6 POP DUP1 NOT DUP5 AND SWAP4 POP DUP1 DUP7 AND DUP5 OR SWAP3 POP POP POP SWAP4 SWAP3 POP POP POP JUMP JUMPDEST PUSH0 DUP2 SWAP1 POP SWAP2 SWAP1 POP JUMP JUMPDEST PUSH0 PUSH2 0x6EC PUSH2 0x6E7 PUSH2 0x6E2 DUP5 PUSH2 0x2FD JUMP JUMPDEST PUSH2 0x6C9 JUMP JUMPDEST PUSH2 0x2FD JUMP JUMPDEST SWAP1 POP SWAP2 SWAP1 POP JUMP JUMPDEST PUSH0 DUP2 SWAP1 POP SWAP2 SWAP1 POP JUMP JUMPDEST PUSH2 0x705 DUP4 PUSH2 0x6D2 JUMP JUMPDEST PUSH2 0x719 PUSH2 0x711 DUP3 PUSH2 0x6F3 JUMP JUMPDEST DUP5 DUP5 SLOAD PUSH2 0x678 JUMP JUMPDEST DUP3 SSTORE POP POP POP POP JUMP JUMPDEST PUSH0 PUSH0 SWAP1 POP SWAP1 JUMP JUMPDEST PUSH2 0x730 PUSH2 0x721 JUMP JUMPDEST PUSH2 0x73B DUP2 DUP5 DUP5 PUSH2 0x6FC JUMP JUMPDEST POP POP POP JUMP JUMPDEST JUMPDEST DUP2 DUP2 LT ISZERO PUSH2 0x75E JUMPI PUSH2 0x753 PUSH0 DUP3 PUSH2 0x728 JUMP JUMPDEST PUSH1 0x1 DUP2 ADD SWAP1 POP PUSH2 0x741 JUMP JUMPDEST POP POP JUMP JUMPDEST PUSH1 0x1F DUP3 GT ISZERO PUSH2 0x7A3 JUMPI PUSH2 0x774 DUP2 PUSH2 0x64B JUMP JUMPDEST PUSH2 0x77D DUP5 PUSH2 0x65D JUMP JUMPDEST DUP2 ADD PUSH1 0x20 DUP6 LT ISZERO PUSH2 0x78C JUMPI DUP2 SWAP1 POP JUMPDEST PUSH2 0x7A0 PUSH2 0x798 DUP6 PUSH2 0x65D JUMP JUMPDEST DUP4 ADD DUP3 PUSH2 0x740 JUMP JUMPDEST POP POP JUMPDEST POP POP POP JUMP JUMPDEST PUSH0 DUP3 DUP3 SHR SWAP1 POP SWAP3 SWAP2 POP POP JUMP JUMPDEST PUSH0 PUSH2 0x7C3 PUSH0 NOT DUP5 PUSH1 0x8 MUL PUSH2 0x7A8 JUMP JUMPDEST NOT DUP1 DUP4 AND SWAP2 POP POP SWAP3 SWAP2 POP POP JUMP JUMPDEST PUSH0 PUSH2 0x7DB DUP4 DUP4 PUSH2 0x7B4 JUMP JUMPDEST SWAP2 POP DUP3 PUSH1 0x2 MUL DUP3 OR SWAP1 POP SWAP3 SWAP2 POP POP JUMP JUMPDEST PUSH2 0x7F4 DUP3 PUSH2 0x35B JUMP JUMPDEST PUSH8 0xFFFFFFFFFFFFFFFF DUP2 GT ISZERO PUSH2 0x80D JUMPI PUSH2 0x80C PUSH2 0x41B JUMP JUMPDEST JUMPDEST PUSH2 0x817 DUP3 SLOAD PUSH2 0x5B3 JUMP JUMPDEST PUSH2 0x822 DUP3 DUP3 DUP6 PUSH2 0x762 JUMP JUMPDEST PUSH0 PUSH1 0x20 SWAP1 POP PUSH1 0x1F DUP4 GT PUSH1 0x1 DUP2 EQ PUSH2 0x853 JUMPI PUSH0 DUP5 ISZERO PUSH2 0x841 JUMPI DUP3 DUP8 ADD MLOAD SWAP1 POP JUMPDEST PUSH2 0x84B DUP6 DUP3 PUSH2 0x7D0 JUMP JUMPDEST DUP7 SSTORE POP PUSH2 0x8B2 JUMP JUMPDEST PUSH1 0x1F NOT DUP5 AND PUSH2 0x861 DUP7 PUSH2 0x64B JUMP JUMPDEST PUSH0 JUMPDEST DUP3 DUP2 LT ISZERO PUSH2 0x888 JUMPI DUP5 DUP10 ADD MLOAD DUP3 SSTORE PUSH1 0x1 DUP3 ADD SWAP2 POP PUSH1 0x20 DUP6 ADD SWAP5 POP PUSH1 0x20 DUP2 ADD SWAP1 POP PUSH2 0x863 JUMP JUMPDEST DUP7 DUP4 LT ISZERO PUSH2 0x8A5 JUMPI DUP5 DUP10 ADD MLOAD PUSH2 0x8A1 PUSH1 0x1F DUP10 AND DUP3 PUSH2 0x7B4 JUMP JUMPDEST DUP4 SSTORE POP JUMPDEST PUSH1 0x1 PUSH1 0x2 DUP9 MUL ADD DUP9 SSTORE POP POP POP JUMPDEST POP POP POP POP POP POP JUMP JUMPDEST PUSH32 0x4E487B7100000000000000000000000000000000000000000000000000000000 PUSH0 MSTORE PUSH1 0x11 PUSH1 0x4 MSTORE PUSH1 0x24 PUSH0 REVERT JUMPDEST PUSH0 PUSH2 0x8F1 DUP3 PUSH2 0x2FD JUMP JUMPDEST SWAP2 POP PUSH32 0xFFFFFFFFFFFFFFFFFFFFFFFFFFFFFFFFFFFFFFFFFFFFFFFFFFFFFFFFFFFFFFFF DUP3 SUB PUSH2 0x923 JUMPI PUSH2 0x922 PUSH2 0x8BA JUMP JUMPDEST JUMPDEST PUSH1 0x1 DUP3 ADD SWAP1 POP SWAP2 SWAP1 POP JUMP INVALID LOG2 PUSH5 0x6970667358 0x22 SLT KECCAK256 0xD9 0xDE SHR EXTCODEHASH PUSH20 0xF38532DE319FD0F474703765FC98763231CADC6 0x28 SWAP2 SWAP15 DUP15 EOFCREATE 0x51 PUSH21 0x64736F6C634300081E003300000000000000000000 "
		},
		"gasEstimates": {
			"creation": {
				"codeDepositCost": "480800",
				"executionCost": "516",
				"totalCost": "481316"
			},
			"external": {
				"addProduct(string)": "infinite",
				"getProduct(uint256)": "infinite",
				"nextproductID()": "2424",
				"productName(uint256)": "infinite",
				"sellProduct(uint256)": "infinite"
			}
		},
		"methodIdentifiers": {
			"addProduct(string)": "dfe00c51",
			"getProduct(uint256)": "b9db15b4",
			"nextproductID()": "5a1af0cd",
			"productName(uint256)": "65c4e22a",
			"sellProduct(uint256)": "492deb15"
		}
	},
	"abi": [
		{
			"inputs": [
				{
					"internalType": "string",
					"name": "_Name",
					"type": "string"
				}
			],
			"name": "addProduct",
			"outputs": [],
			"stateMutability": "nonpayable",
			"type": "function"
		},
		{
			"inputs": [
				{
					"internalType": "uint256",
					"name": "_valueID",
					"type": "uint256"
				}
			],
			"name": "getProduct",
			"outputs": [
				{
					"internalType": "string",
					"name": "",
					"type": "string"
				}
			],
			"stateMutability": "view",
			"type": "function"
		},
		{
			"inputs": [],
			"name": "nextproductID",
			"outputs": [
				{
					"internalType": "uint256",
					"name": "",
					"type": "uint256"
				}
			],
			"stateMutability": "view",
			"type": "function"
		},
		{
			"inputs": [
				{
					"internalType": "uint256",
					"name": "",
					"type": "uint256"
				}
			],
			"name": "productName",
			"outputs": [
				{
					"internalType": "string",
					"name": "",
					"type": "string"
				}
			],
			"stateMutability": "view",
			"type": "function"
		},
		{
			"inputs": [
				{
					"internalType": "uint256",
					"name": "_valueID",
					"type": "uint256"
				}
			],
			"name": "sellProduct",
			"outputs": [
				{
					"internalType": "string",
					"name": "",
					"type": "string"
				}
			],
			"stateMutability": "view",
			"type": "function"
		}
	]
}